:060ECB00737461727400F3
:100EAD007BFF7A0E79CB120E797FE87E03120DA8A7
:030EBD00020DC65D
:0B0EC00025730025730A004F4B0A0049
:100D1E00203227000000000000000000000000004C
:100D2E0000000000000000000000000000000000B5
:100D3E0000000000000000000000000000000000A5
:0B0D4E00000000000001250001220051
:100E96007589208F8D8F8BD28EC29FD29ED29CD287
:070EA600AFD2AC752201225E
:100E5C008B598A5A895BD2998B0E8A0F89107BFF2A
:0D0E6C007A0E79C01208623099FDC29922F9
:100E79008B088A09890AD2998B0E8A0F89107BFF00
:0D0E89007A0E79C31208623099FDC29922D9
:100CD000E52364017039F52474272524F8E6FF64C0
:100CE000236012E524C39432500B8F993099FDC2D2
:100CF00099052480E3E4F524E524900EC793F59943
:100D00003099FDC2990524E524B403ECE4F523E50C
:0E0D100026B401BCE4F5267BFF7A0E79C722DB
:03002300020C7656
:100C7600C0E0C0D075D000C000309847C298E523C8
:100C86007021E525601D75250074272525F8E66485
:100C960023600DE525C3943250067600052580E9CC
:100CA60075250074272525F8A6997523017427252F
:100CB60025F8E664236005E525B43105752601802F
:0A0CC600020525D000D0D0D0E032A6
:100D5A00676F46726F6E7400676F4261636B0073F0
:100D6A00746F70007475726E4C6566740074757277
:070D7A006E52696768740006
:100DA800D3EF9400EE940040147D6E7C00ED1D702E
:0D0DB800011CED4C70F7EF1F70E61E80E38C
:010DC500220B
:100DC600D290C291D292C293D294C295D296C29731
:0E0DD600E52260097BFF7A0D795A120E792210
:100DE400C290D291C292D293C294D295C296D29713
:0E0DF400E52260097BFF7A0D7962120E7922EA
:100E0200C290C291C292C293C294C295C296C29734
:0E0E1200E52260097BFF7A0D7969120E7922C4
:100E2000C290D291C292D293D294C295D296C297D6
:0E0E3000E52260097BFF7A0D796E120E7922A1
:100E3E00D290C291D292C293C294D295C296D297B8
:0E0E4E00E52260097BFF7A0D7977120E79227A
:03000000020BEA06
:0C0BEA00787FE4F6D8FD75815B020C31C9
:10080000E51A240EF8E6051A22780B300702780E56
:10081000E475F001120BB4020B5C2000EB7F2ED2CA
:10082000008018EF540F2490D43440D4FF30040BD0
:10083000EF24BFB41A0050032461FFE51B600215CA
:100840001B051EE51E7002051D30070D780BE475B3
:10085000F001120BB4EF020BA2020D817403D20758
:100860008003E4C207F51A8B0B8A0C890DE4F51B93
:10087000F51DF51EE51B60077F2012083B80F5750E
:100880001CFFC201C200C202C203C205C206C208E6
:10089000120809FF700D3007057F0012084CAF1ECB
:1008A000AE1D22B4255FC2D5C204120809FF24D0B0
:1008B000B40A00501A75F00A781B30D50508B6FF47
:1008C0000106C6A426F620D5047002D20380D924DE
:1008D000CFB41A00EF5004C2E5D204020A4CD20190
:1008E00080C6D20080C0D20280BCD2D580BAD205E8
:1008F00080B47F2012083B2002077401B51B004022
:10090000F1120800FF12083B020874D208D20680D8
:1009100095120800FB120800FA120800F94A4B7001
:1009200006791D7A0B7BFF20022EE51B602A7E00D4
:100930008E82758300120B7560060EEE651C70F0DA
:10094000C2D5EBC0E0EAC0E0E9C0E0EE120A93D005
:10095000E0F9D0E0FAD0E0FB120B5CFF60AAEBC03C
:10096000E0EAC0E0E9C0E012083BD0E02401F9D0A1
:10097000E03400FAD0E0FBE51C0460DCD51CD98033
:10098000877BFF7A0A798FD202809C791080027966
:1009900008C206C2088008D2D5790A8004790AC242
:1009A000D5E51C047002F51CE4FAFDFEFF120800F8
:1009B000FC7B08200113120800FD7B1030000A1296
:1009C0000800FE120800FF7B20EC3382D592D55040
:1009D00013C3E43000069FFFE49EFEE42001039D64
:1009E000FDE49CFCE4CBF8C201EC700CCFCECDCC86
:1009F000E824F8F870F38017C3EF33FFEE33FEED11
:100A000033FDEC33FCEB33FB994002FB0FD8E9EBF1
:100A1000300105F8D0E0C448B201C0E00AEC4D4E08
:100A20004F78207B0070C2EAB51C0040BCC0E012C9
:100A30000A95D0F0D0E0200104C4C0E0C4B201C0E7
:100A4000F0120824D0F0D5F0EB020874120BC409A0
:100A50001153098B5808E24C08DE42098F4F099761
:0F0A60004409974908F743099D550981460981C3
:100A6F00450981470B3D5008E62D08EA2E090D2B4D
:100A7F0008EE23090B200B262A08A64800000905BB
:100A8F003F3F3F00790AA2D5200314300509B91062
:100A9F00020404B9080104A2D52006025001042063
:100AAF0002689202B51B005034C0E07F203003195A
:100ABF007F30A20272067205500F120AECC202C2F8
:100ACF0006C205C2087F30800F300503E9C0E0126F
:100ADF00083B300503D0E0F9D0E0B51BCC3005174B
:100AEF007F30B9100C12083B7F583004077F788095
:100AFF0003B9080312083B3002057F2D02083B7F24
:100B0F00202008F87F2B2006F322920280CF286E38
:100B1F00756C6C2900D2011208003001F8C20178FF
:100B2F001B30D50108F60208A62D5043495812086C
:100B3F00002403B405004001E4900B389312082CF5
:0D0B4F00743A12082CD203751B0402098BA6
:100BF600020EADE493A3F8E493A34003F68001F25A
:100C060008DFF48029E493A3F85407240CC8C333FF
:100C1600C4540F4420C8834004F456800146F6DFCE
:100C2600E4800B0102040810204080900D1EE47E33
:100C3600019360BCA3FF543F30E509541FFEE493C3
:100C4600A360010ECF54C025E060A840B8E493A38A
:100C5600FAE493A3F8E493A3C8C582C8CAC583CAB5
:100C6600F0A3C8C582C8CAC583CADFE9DEE780BE6D
:010D59000099
:100B5C00BB010689828A83E0225002E722BBFE0297
:090B6C00E32289828A83E49322CA
:100B7500BB010CE58229F582E5833AF583E0225035
:100B850006E92582F8E622BBFE06E92582F8E2227F
:0D0B9500E58229F582E5833AF583E4932299
:100BA200BB010689828A83F0225002F722BBFE0132
:020BB200F3222C
:100BB400FAE6FB0808E6F925F0F618E6CA3AF62242
:100BC400D083D082F8E4937012740193700DA3A3C0
:100BD40093F8740193F5828883E4737402936860D4
:060BE400EFA3A3A380DFD4
:100D8100EFB40A07740D120D8C740A309811A899EA
:100D9100B8130CC2983098FDA899C298B811F630D2
:070DA10099FDC299F59922AA
:00000001FF
