:100DCB00D3EF9400EE940040147D6E7C00ED1D700B
:0D0DDB00011CED4C70F7EF1F70E61E80E369
:010DE80022E8
:100E4F00D290C291D292C293D294C295D296C297A7
:010E5F002270
:100E6000C290D291C292D293C294D295C296D29796
:010E7000225F
:100E7100C290C291C292C293C294C295C296C297C5
:010E8100224E
:100E8200C290D291C292D293D294C295D296C29774
:010E9200223D
:100E9300D290C291D292C293C294D295C296D29763
:010EA300222C
:100D1E0025730025730A0074686973206D657373FB
:100D2E006167652077696C6C2073686F77206576D4
:100D3E006572792074696D652074686572652069C5
:100D4E00732061206E6577206D6573736167652012
:0D0D5E007265636569766564004F4B0A009D
:100D6B002032260000000000000000000000000000
:100D7B000000000000000000000000000000000068
:100D8B000000000000000000000000000000000058
:080D9B0000000000000124002B
:100E3B007589208F8D8F8BD28EC29FD29ED29CD2E2
:040E4B00AFD2AC2254
:100DE9008B588A59895AD2998B0E8A0F89107BFFA1
:0D0DF9007A0D791E1208623099FDC2992210
:100E06008B088A09890AD2998B0E8A0F89107BFF73
:0D0E16007A0D79211208623099FDC29922EF
:100CD000E52264017039F52374262523F8E6FF64C4
:100CE000236012E523C39432500B8F993099FDC2D3
:100CF00099052380E3E4F523E523900D6793F599A7
:100D00003099FDC2990523E523B403ECE4F522E50F
:0E0D100025B401BCE4F5257BFF7A0D7967223E
:03002300020C7656
:100C7600C0E0C0D075D000C000309847C298E522C9
:100C86007021E524601D75240074262524F8E66489
:100C960023600DE524C3943250067600052480E9CE
:100CA60075240074262524F8A69975220174262534
:100CB60024F8E664236005E524B431057525018032
:0A0CC600020524D000D0D0D0E032A7
:100E23007FFD7E00120E3B7BFF7A0D7925120E06A5
:080E3300120CD0120E0680EF34
:03000000020BEA06
:0C0BEA00787FE4F6D8FD75815A020C31CA
:10080000E51A240EF8E6051A22780B300702780E56
:10081000E475F001120BB4020B5C2000EB7F2ED2CA
:10082000008018EF540F2490D43440D4FF30040BD0
:10083000EF24BFB41A0050032461FFE51B600215CA
:100840001B051EE51E7002051D30070D780BE475B3
:10085000F001120BB4EF020BA2020DA47403D20735
:100860008003E4C207F51A8B0B8A0C890DE4F51B93
:10087000F51DF51EE51B60077F2012083B80F5750E
:100880001CFFC201C200C202C203C205C206C208E6
:10089000120809FF700D3007057F0012084CAF1ECB
:1008A000AE1D22B4255FC2D5C204120809FF24D0B0
:1008B000B40A00501A75F00A781B30D50508B6FF47
:1008C0000106C6A426F620D5047002D20380D924DE
:1008D000CFB41A00EF5004C2E5D204020A4CD20190
:1008E00080C6D20080C0D20280BCD2D580BAD205E8
:1008F00080B47F2012083B2002077401B51B004022
:10090000F1120800FF12083B020874D208D20680D8
:1009100095120800FB120800FA120800F94A4B7001
:1009200006791D7A0B7BFF20022EE51B602A7E00D4
:100930008E82758300120B7560060EEE651C70F0DA
:10094000C2D5EBC0E0EAC0E0E9C0E0EE120A93D005
:10095000E0F9D0E0FAD0E0FB120B5CFF60AAEBC03C
:10096000E0EAC0E0E9C0E012083BD0E02401F9D0A1
:10097000E03400FAD0E0FBE51C0460DCD51CD98033
:10098000877BFF7A0A798FD202809C791080027966
:1009900008C206C2088008D2D5790A8004790AC242
:1009A000D5E51C047002F51CE4FAFDFEFF120800F8
:1009B000FC7B08200113120800FD7B1030000A1296
:1009C0000800FE120800FF7B20EC3382D592D55040
:1009D00013C3E43000069FFFE49EFEE42001039D64
:1009E000FDE49CFCE4CBF8C201EC700CCFCECDCC86
:1009F000E824F8F870F38017C3EF33FFEE33FEED11
:100A000033FDEC33FCEB33FB994002FB0FD8E9EBF1
:100A1000300105F8D0E0C448B201C0E00AEC4D4E08
:100A20004F78207B0070C2EAB51C0040BCC0E012C9
:100A30000A95D0F0D0E0200104C4C0E0C4B201C0E7
:100A4000F0120824D0F0D5F0EB020874120BC409A0
:100A50001153098B5808E24C08DE42098F4F099761
:0F0A60004409974908F743099D550981460981C3
:100A6F00450981470B3D5008E62D08EA2E090D2B4D
:100A7F0008EE23090B200B262A08A64800000905BB
:100A8F003F3F3F00790AA2D5200314300509B91062
:100A9F00020404B9080104A2D52006025001042063
:100AAF0002689202B51B005034C0E07F203003195A
:100ABF007F30A20272067205500F120AECC202C2F8
:100ACF0006C205C2087F30800F300503E9C0E0126F
:100ADF00083B300503D0E0F9D0E0B51BCC3005174B
:100AEF007F30B9100C12083B7F583004077F788095
:100AFF0003B9080312083B3002057F2D02083B7F24
:100B0F00202008F87F2B2006F322920280CF286E38
:100B1F00756C6C2900D2011208003001F8C20178FF
:100B2F001B30D50108F60208A62D5043495812086C
:100B3F00002403B405004001E4900B389312082CF5
:0D0B4F00743A12082CD203751B0402098BA6
:100BF600020E23E493A3F8E493A34003F68001F2E4
:100C060008DFF48029E493A3F85407240CC8C333FF
:100C1600C4540F4420C8834004F456800146F6DFCE
:100C2600E4800B0102040810204080900D6BE47EE6
:100C3600019360BCA3FF543F30E509541FFEE493C3
:100C4600A360010ECF54C025E060A840B8E493A38A
:100C5600FAE493A3F8E493A3C8C582C8CAC583CAB5
:100C6600F0A3C8C582C8CAC583CADFE9DEE780BE6D
:010DA300004F
:100B5C00BB010689828A83E0225002E722BBFE0297
:090B6C00E32289828A83E49322CA
:100B7500BB010CE58229F582E5833AF583E0225035
:100B850006E92582F8E622BBFE06E92582F8E2227F
:0D0B9500E58229F582E5833AF583E4932299
:100BA200BB010689828A83F0225002F722BBFE0132
:020BB200F3222C
:100BB400FAE6FB0808E6F925F0F618E6CA3AF62242
:100BC400D083D082F8E4937012740193700DA3A3C0
:100BD40093F8740193F5828883E4737402936860D4
:060BE400EFA3A3A380DFD4
:100DA400EFB40A07740D120DAF740A309811A899A4
:100DB400B8130CC2983098FDA899C298B811F630AF
:070DC40099FDC299F5992287
:00000001FF
