:080E790002590006025B0000B3
:0E10C8007C007DC8120B5C8C598D5A0210B84A
:03000B00020F02DF
:100F0200C0E0C0D0055CE55C7002055BC394C8E537
:100F12005B94004008755B00755C00D2B7E55CB578
:100F22005A07E55BB55902C2B7758CFF758ABFD007
:040F3200D0D0E03209
:1010B800D2AFD2A9758901758CFF758ABFD28C22EF
:100DDD00676F46726F6E7400676F4261636B00736D
:100DED00746F70007475726E4C65667400747572F4
:100DFD006E5269676874007475726E4C65667441E5
:100E0D006E64476F007475726E5269676874416ED7
:0E0E1D0064476F00C0F9A4B0999282F88090EB
:040E810002600064A7
:080F5D00D2A2D2A37F017E00A5
:100F6500D3EF9400EE940040147D6E7C00ED1D706F
:0D0F7500011CED4C70F7EF1F70E61E80E3CD
:010F8200224C
:100F8300D290C291D292C293D294C295D296C29772
:0E0F9300E52260097BFF7A0D79DD12107222D3
:100FA100C290D291C292D293C294D295C296D29754
:0E0FB100E52260097BFF7A0D79E512107222AD
:100FBF00C290C291C292C293C294C295C296C29776
:0E0FCF00E52260097BFF7A0D79EC1210722288
:100FDD00C290D291C292D293D294C295D296C29718
:0E0FED00E52260097BFF7A0D79F11210722265
:100FFB00D290C291D292C293C294D295C296D297FA
:0E100B00E52260097BFF7A0D79FA121072223D
:10101900C290C291C292C293D294C295D296C297FB
:0E102900E52260097BFF7A0E79041210722214
:10103700D290C291D292C293C294C295C296C297DD
:0E104700E52260097BFF7A0E791212107222E8
:1010A600C2B6AF61AE60120F65D2B6AF61AE600276
:0210B6000F65C4
:040C3F008E088F0983
:100C4300E4FBC2A0D2A1D2A2D2A3AE08AF097C0317
:100C53007DE8120B5C7E007F64CFCDCFCECCCE126D
:100C63000B5C74212FF582740E3EF583E493F580BB
:100C7300D2A0C2A1120F5DAE08AF097C007D641241
:100C83000B5C7E007F0ACFCDCFCECCCE120B5C7433
:100C9300212FF582740E3EF583E493F580D2A0D222
:100CA300A1C2A2120F5FAE08AF097C007D0A120B2E
:100CB3005C74212DF582740E3CF583E493F580D2A8
:100CC300A0D2A1D2A2C2A3120F61AE08AF097C03C6
:100CD3007DE8120B5C74212FF582740E3EF583E4DC
:100CE30093F580D2A0D2A1120F5D0BEB646E60036B
:030CF300020C45AB
:010CF60022DB
:0610E100737461727400DB
:040E85000262000500
:100EC5001210A67FFD7E0012108F7BFF7A1079E14C
:100ED500121072AF63AE621210C8AF63AE62120C2D
:100EE5003F0563E56370020562641A45627005F5A6
:0D0EF500627563057F647E00120F6580D674
:0B10D60025730025730A004F4B0A0031
:100E890020322700000000000000000000000000E0
:100E99000000000000000000000000000000000049
:100EA9000000000000000000000000000000000039
:0B0EB9000000000000012500012200E5
:10108F007589208F8D8F8BD28EC29FD29ED29CD28C
:07109F00AFD2AC7522012263
:101055008B5D8A5E895FD2998B0E8A0F89107BFF23
:0D1065007A1079D61208623099FDC29922E6
:101072008B088A09890AD2998B0E8A0F89107BFF05
:0D1082007A1079D91208623099FDC29922C6
:100E2B00E52364017039F52474272524F8E6FF6463
:100E3B00236012E524C39432500B8F993099FDC275
:100E4B0099052480E3E4F524E5249010DD93F599CE
:100E5B003099FDC2990524E524B403ECE4F523E5B0
:0E0E6B0026B401BCE4F5267BFF7A1079DD2267
:03002300020D8348
:100D8300C0E0C0D075D000C000309847C298E523BA
:100D93007021E525601D75250074272525F8E66477
:100DA30023600DE525C3943250067600052580E9BE
:100DB30075250074272525F8A69975230174272521
:100DC30025F8E664236005E525B431057526018021
:0A0DD300020525D000D0D0D0E03298
:03000000020CF7F8
:0C0CF700787FE4F6D8FD758163020D3EA5
:100B5C00BC000BBE0029EF8DF084FFADF022E4CC7D
:100B6C00F875F008EF2FFFEE33FEEC33FCEE9DEC46
:100B7C00984005FCEE9DFE0FD5F0E9E4CEFD22ED8C
:100B8C00F8F5F0EE8420D21CFEADF075F008EF2FD6
:100B9C00FFED33FD4007985006D5F0F222C398FDC7
:050BAC000FD5F0EA2264
:10080000E51A240EF8E6051A22780B300702780E56
:10081000E475F001120C09020BB12000EB7F2ED21F
:10082000008018EF540F2490D43440D4FF30040BD0
:10083000EF24BFB41A0050032461FFE51B600215CA
:100840001B051EE51E7002051D30070D780BE475B3
:10085000F001120C09EF020BF7020F367403D207F6
:100860008003E4C207F51A8B0B8A0C890DE4F51B93
:10087000F51DF51EE51B60077F2012083B80F5750E
:100880001CFFC201C200C202C203C205C206C208E6
:10089000120809FF700D3007057F0012084CAF1ECB
:1008A000AE1D22B4255FC2D5C204120809FF24D0B0
:1008B000B40A00501A75F00A781B30D50508B6FF47
:1008C0000106C6A426F620D5047002D20380D924DE
:1008D000CFB41A00EF5004C2E5D204020A4CD20190
:1008E00080C6D20080C0D20280BCD2D580BAD205E8
:1008F00080B47F2012083B2002077401B51B004022
:10090000F1120800FF12083B020874D208D20680D8
:1009100095120800FB120800FA120800F94A4B7001
:1009200006791D7A0B7BFF20022EE51B602A7E00D4
:100930008E82758300120BCA60060EEE651C70F085
:10094000C2D5EBC0E0EAC0E0E9C0E0EE120A93D005
:10095000E0F9D0E0FAD0E0FB120BB1FF60AAEBC0E7
:10096000E0EAC0E0E9C0E012083BD0E02401F9D0A1
:10097000E03400FAD0E0FBE51C0460DCD51CD98033
:10098000877BFF7A0A798FD202809C791080027966
:1009900008C206C2088008D2D5790A8004790AC242
:1009A000D5E51C047002F51CE4FAFDFEFF120800F8
:1009B000FC7B08200113120800FD7B1030000A1296
:1009C0000800FE120800FF7B20EC3382D592D55040
:1009D00013C3E43000069FFFE49EFEE42001039D64
:1009E000FDE49CFCE4CBF8C201EC700CCFCECDCC86
:1009F000E824F8F870F38017C3EF33FFEE33FEED11
:100A000033FDEC33FCEB33FB994002FB0FD8E9EBF1
:100A1000300105F8D0E0C448B201C0E00AEC4D4E08
:100A20004F78207B0070C2EAB51C0040BCC0E012C9
:100A30000A95D0F0D0E0200104C4C0E0C4B201C0E7
:100A4000F0120824D0F0D5F0EB020874120C19094A
:100A50001153098B5808E24C08DE42098F4F099761
:0F0A60004409974908F743099D550981460981C3
:100A6F00450981470B3D5008E62D08EA2E090D2B4D
:100A7F0008EE23090B200B262A08A64800000905BB
:100A8F003F3F3F00790AA2D5200314300509B91062
:100A9F00020404B9080104A2D52006025001042063
:100AAF0002689202B51B005034C0E07F203003195A
:100ABF007F30A20272067205500F120AECC202C2F8
:100ACF0006C205C2087F30800F300503E9C0E0126F
:100ADF00083B300503D0E0F9D0E0B51BCC3005174B
:100AEF007F30B9100C12083B7F583004077F788095
:100AFF0003B9080312083B3002057F2D02083B7F24
:100B0F00202008F87F2B2006F322920280CF286E38
:100B1F00756C6C2900D2011208003001F8C20178FF
:100B2F001B30D50108F60208A62D5043495812086C
:100B3F00002403B405004001E4900B389312082CF5
:0D0B4F00743A12082CD203751B0402098BA6
:100D0300020EC5E493A3F8E493A34003F68001F233
:100D130008DFF48029E493A3F85407240CC8C333F1
:100D2300C4540F4420C8834004F456800146F6DFC0
:100D3300E4800B0102040810204080900E79E47EC9
:100D4300019360BCA3FF543F30E509541FFEE493B5
:100D5300A360010ECF54C025E060A840B8E493A37C
:100D6300FAE493A3F8E493A3C8C582C8CAC583CAA7
:100D7300F0A3C8C582C8CAC583CADFE9DEE780BE5F
:010EC400002D
:100BB100BB010689828A83E0225002E722BBFE0242
:090BC100E32289828A83E4932275
:100BCA00BB010CE58229F582E5833AF583E02250E0
:100BDA0006E92582F8E622BBFE06E92582F8E2222A
:0D0BEA00E58229F582E5833AF583E4932244
:100BF700BB010689828A83F0225002F722BBFE01DD
:020C0700F322D6
:100C0900FAE6FB0808E6F925F0F618E6CA3AF622EC
:100C1900D083D082F8E4937012740193700DA3A36A
:100C290093F8740193F5828883E47374029368607E
:060C3900EFA3A3A380DF7E
:100F3600EFB40A07740D120F41740A309811A8997C
:100F4600B8130CC2983098FDA899C298B811F6301B
:070F560099FDC299F59922F3
:00000001FF
