:100E4500676F46726F6E7400676F4261636B007304
:100E5500746F70007475726E4C656674007475728B
:100E65006E5269676874007475726E4C656674417C
:100E75006E64476F007475726E5269676874416E6F
:0E0E850064476F00C0F9A4B0999282F8809083
:040EE100025E006449
:080F4800D2A2D2A37F017E00BA
:100F5000D3EF9400EE940040147D6E7C00ED1D7084
:0D0F6000011CED4C70F7EF1F70E61E80E3E2
:010F6D002261
:100F6E00D290C291D292C293D294C295D296C29787
:0E0F7E00E52260097BFF7A0E794512105D2294
:100F8C00C290D291C292D293C294D295C296D29769
:0E0F9C00E52260097BFF7A0E794D12105D226E
:100FAA00C290C291C292C293C294C295C296C2978B
:0E0FBA00E52260097BFF7A0E795412105D2249
:100FC800C290D291C292D293D294C295D296C2972D
:0E0FD800E52260097BFF7A0E795912105D2226
:100FE600D290C291D292C293C294D295C296D2970F
:0E0FF600E52260097BFF7A0E796212105D22FF
:10100400C290C291C292C293D294C295D296C29710
:0E101400E52260097BFF7A0E796C12105D22D6
:10102200D290C291D292C293C294C295C296C297F2
:0E103200E52260097BFF7A0E797A12105D22AA
:10109100C2B6AF5FAE5E120F50D2B6AF5FAE5E02A8
:0210A1000F50EE
:040C3F008E5C8F5DDB
:100C4300E4FBC2A0D2A1D2A2D2A3AE5CAF5D7C036F
:100C53007DE8120B5C7E007F64CFCDCFCECCCE126D
:100C63000B5C74892FF582740E3EF583E493F58053
:100C7300D2A0C2A1120F48AE5CAF5D7C007D6412AE
:100C83000B5C7E007F0ACFCDCFCECCCE120B5C7433
:100C9300892FF582740E3EF583E493F580D2A0D2BA
:100CA300A1C2A2120F4AAE5CAF5D7C007D0A120B9B
:100CB3005C74892DF582740E3CF583E493F580D240
:100CC300A0D2A1D2A2C2A3120F4CAE5CAF5D7C0333
:100CD3007DE8120B5C74892FF582740E3EF583E474
:100CE30093F580D2A0D2A1120F480BEB646E600380
:030CF300020C45AB
:010CF60022DB
:0B10A30025730025730A004F4B0A0064
:100EE5002032270000000000000000000000000084
:100EF50000000000000000000000000000000000ED
:100F050000000000000000000000000000000000DC
:0B0F1500000000000001250001220088
:10107A007589208F8D8F8BD28EC29FD29ED29CD2A1
:07108A00AFD2AC7522012278
:101040008B598A5A895BD2998B0E8A0F89107BFF44
:0D1050007A1079A31208623099FDC299222E
:10105D008B088A09890AD2998B0E8A0F89107BFF1A
:0D106D007A1079A61208623099FDC299220E
:100E9300E52364017039F52474272524F8E6FF64FB
:100EA300236012E524C39432500B8F993099FDC20D
:100EB30099052480E3E4F524E5249010AA93F59999
:100EC3003099FDC2990524E524B403ECE4F523E548
:0E0ED30026B401BCE4F5267BFF7A1079AA2232
:03002300020DEBE0
:100DEB00C0E0C0D075D000C000309847C298E52352
:100DFB007021E525601D75250074272525F8E6640F
:100E0B0023600DE525C3943250067600052580E955
:100E1B0075250074272525F8A699752301742725B8
:100E2B0025F8E664236005E525B4310575260180B8
:0A0E3B00020525D000D0D0D0E0322F
:0610AE007374617274000E
:100D83007FFD7E0012107A7BFF7A1079AE12105D20
:100D9300121091121091120F6E7FE87E03120F5002
:100DA300120FC87FF47E01120F50120FE67FF47EFC
:100DB30001120F50120FAA7FF47E01120F5012106E
:100DC300047FE87E03120F501210227FE87E031285
:100DD3000F50120F6E7FF47E01120F50120F8C7F93
:080DE300D07E07120F5080AE14
:03000000020CF7F8
:0C0CF700787FE4F6D8FD75815F020D3EA9
:100B5C00BC000BBE0029EF8DF084FFADF022E4CC7D
:100B6C00F875F008EF2FFFEE33FEEC33FCEE9DEC46
:100B7C00984005FCEE9DFE0FD5F0E9E4CEFD22ED8C
:100B8C00F8F5F0EE8420D21CFEADF075F008EF2FD6
:100B9C00FFED33FD4007985006D5F0F222C398FDC7
:050BAC000FD5F0EA2264
:10080000E51A240EF8E6051A22780B300702780E56
:10081000E475F001120C09020BB12000EB7F2ED21F
:10082000008018EF540F2490D43440D4FF30040BD0
:10083000EF24BFB41A0050032461FFE51B600215CA
:100840001B051EE51E7002051D30070D780BE475B3
:10085000F001120C09EF020BF7020F217403D2070B
:100860008003E4C207F51A8B0B8A0C890DE4F51B93
:10087000F51DF51EE51B60077F2012083B80F5750E
:100880001CFFC201C200C202C203C205C206C208E6
:10089000120809FF700D3007057F0012084CAF1ECB
:1008A000AE1D22B4255FC2D5C204120809FF24D0B0
:1008B000B40A00501A75F00A781B30D50508B6FF47
:1008C0000106C6A426F620D5047002D20380D924DE
:1008D000CFB41A00EF5004C2E5D204020A4CD20190
:1008E00080C6D20080C0D20280BCD2D580BAD205E8
:1008F00080B47F2012083B2002077401B51B004022
:10090000F1120800FF12083B020874D208D20680D8
:1009100095120800FB120800FA120800F94A4B7001
:1009200006791D7A0B7BFF20022EE51B602A7E00D4
:100930008E82758300120BCA60060EEE651C70F085
:10094000C2D5EBC0E0EAC0E0E9C0E0EE120A93D005
:10095000E0F9D0E0FAD0E0FB120BB1FF60AAEBC0E7
:10096000E0EAC0E0E9C0E012083BD0E02401F9D0A1
:10097000E03400FAD0E0FBE51C0460DCD51CD98033
:10098000877BFF7A0A798FD202809C791080027966
:1009900008C206C2088008D2D5790A8004790AC242
:1009A000D5E51C047002F51CE4FAFDFEFF120800F8
:1009B000FC7B08200113120800FD7B1030000A1296
:1009C0000800FE120800FF7B20EC3382D592D55040
:1009D00013C3E43000069FFFE49EFEE42001039D64
:1009E000FDE49CFCE4CBF8C201EC700CCFCECDCC86
:1009F000E824F8F870F38017C3EF33FFEE33FEED11
:100A000033FDEC33FCEB33FB994002FB0FD8E9EBF1
:100A1000300105F8D0E0C448B201C0E00AEC4D4E08
:100A20004F78207B0070C2EAB51C0040BCC0E012C9
:100A30000A95D0F0D0E0200104C4C0E0C4B201C0E7
:100A4000F0120824D0F0D5F0EB020874120C19094A
:100A50001153098B5808E24C08DE42098F4F099761
:0F0A60004409974908F743099D550981460981C3
:100A6F00450981470B3D5008E62D08EA2E090D2B4D
:100A7F0008EE23090B200B262A08A64800000905BB
:100A8F003F3F3F00790AA2D5200314300509B91062
:100A9F00020404B9080104A2D52006025001042063
:100AAF0002689202B51B005034C0E07F203003195A
:100ABF007F30A20272067205500F120AECC202C2F8
:100ACF0006C205C2087F30800F300503E9C0E0126F
:100ADF00083B300503D0E0F9D0E0B51BCC3005174B
:100AEF007F30B9100C12083B7F583004077F788095
:100AFF0003B9080312083B3002057F2D02083B7F24
:100B0F00202008F87F2B2006F322920280CF286E38
:100B1F00756C6C2900D2011208003001F8C20178FF
:100B2F001B30D50108F60208A62D5043495812086C
:100B3F00002403B405004001E4900B389312082CF5
:0D0B4F00743A12082CD203751B0402098BA6
:100D0300020D83E493A3F8E493A34003F68001F276
:100D130008DFF48029E493A3F85407240CC8C333F1
:100D2300C4540F4420C8834004F456800146F6DFC0
:100D3300E4800B0102040810204080900EE1E47E61
:100D4300019360BCA3FF543F30E509541FFEE493B5
:100D5300A360010ECF54C025E060A840B8E493A37C
:100D6300FAE493A3F8E493A3C8C582C8CAC583CAA7
:100D7300F0A3C8C582C8CAC583CADFE9DEE780BE5F
:010F200000D0
:100BB100BB010689828A83E0225002E722BBFE0242
:090BC100E32289828A83E4932275
:100BCA00BB010CE58229F582E5833AF583E02250E0
:100BDA0006E92582F8E622BBFE06E92582F8E2222A
:0D0BEA00E58229F582E5833AF583E4932244
:100BF700BB010689828A83F0225002F722BBFE01DD
:020C0700F322D6
:100C0900FAE6FB0808E6F925F0F618E6CA3AF622EC
:100C1900D083D082F8E4937012740193700DA3A36A
:100C290093F8740193F5828883E47374029368607E
:060C3900EFA3A3A380DF7E
:100F2100EFB40A07740D120F2C740A309811A899A6
:100F3100B8130CC2983098FDA899C298B811F63030
:070F410099FDC299F5992208
:00000001FF
