:10155E00676F46726F6E7400676F4261636B0073E4
:10156E00746F70007475726E4C656674007475726B
:10157E006E5269676874007475726E4C656674415C
:10158E006E64476F007475726E5269676874416E4F
:0E159E0064476F00C0F9A4B0999282F8809063
:0415AC00020E0064C7
:08172700D2A2D2A37F017E00D3
:10172F00D3EF9400EE940040147D6E7C00ED1D709D
:0D173F00011CED4C70F7EF1F70E61E80E3FB
:01174C00227A
:10174D00D290C291D292C293D294C295D296C297A0
:0E175D00E52260097BFF7A15795E12183C22A6
:10176B00C290D291C292D293C294D295C296D29782
:0E177B00E52260097BFF7A15796612183C2280
:10178900C290C291C292C293C294C295C296C297A4
:0E179900E52260097BFF7A15796D12183C225B
:1017A700C290D291C292D293D294C295D296C29746
:0E17B700E52260097BFF7A15797212183C2238
:1017C500D290C291D292C293C294D295C296D29728
:0E17D500E52260097BFF7A15797B12183C2211
:1017E300C290C291C292C293D294C295D296C2972A
:0E17F300E52260097BFF7A15798512183C22E9
:10180100D290C291D292C293C294C295C296C2970B
:0E181100E52260097BFF7A15799312183C22BC
:10188700C2B6AF0FAE0E12172FD2B6AF0FAE0E0203
:02189700172F09
:04125F008E598F5ABB
:10126300E4FBC2A0D2A1D2A2D2A3AE59AF5A7C034F
:101273007DE8120D577E007F64CFCDCFCECCCE124A
:101283000D5774A22FF58274153EF583E493F58010
:10129300D2A0C2A1121727AE59AF5A7C007D6412A7
:1012A3000D577E007F0ACFCDCFCECCCE120D577413
:1012B300A22FF58274153EF583E493F580D2A0D274
:1012C300A1C2A2121729AE59AF5A7C007D0A120D92
:1012D3005774A22DF58274153CF583E493F580D2FF
:1012E300A0D2A1D2A2C2A312172BAE59AF5A7C032C
:1012F3007DE8120D5774A22FF58274153EF583E431
:1013030093F580D2A0D2A11217270BEB646E600372
:031313000212655E
:0113160022B4
:10185900756E646566696E6564206D6F64650061A7
:0718690075746F52756E00EB
:0415B0000210000025
:1016D500EF14600D14600D14600D2403700F0217D4
:1016E5004D02142F0200001216A2021317E5226004
:0B16F500097BFF7A18795912183C227B
:10142F007522017BFF7A18796812183C12174D123A
:10143F00149B8E108F11C3E511942CE5109401505D
:10144F003FAF11AE1012125FC3E5119464E5109413
:10145F0000501AAF11AE1012125F12176B12149BBD
:10146F008E108F117F327E0012172F80DB1217A77D
:10147F0012149B8E108F117F327E0012172F80B6A1
:0C148F0012174DAF11AE1012125F80A3B7
:0B18A50025730025730A004F4B0A005A
:1015B40020322700000000000000000000000000AE
:1015C4000000000000000000000000000000000017
:1015D4000000000000000000000000000000000007
:0B15E4000000000000012500012200B3
:101870007589208F8D8F8BD28EC29FD29ED29CD2A3
:07188000AFD2AC752201227A
:10181F008B088A09890AD2998B5F8A6089617BFF5D
:0D182F007A1879A5120E523099FDC2992247
:10183C008B598A5A895BD2998B5F8A6089617BFF4D
:0D184C007A1879A8120E523099FDC2992227
:10163600E52364017022F52474272524F8E6FF6467
:101646000A6012E524C39432500B8F993099FDC27B
:1016560099052480E3E4F523E526B401D3E4F526D1
:06166600FB7A0079272247
:10166C00E52364017022F52474272524F8E6640A26
:10167C006013E524C39432500CE4F5993099FDC203
:10168C0099052480E3E4F523E526B401D3E4F5269B
:06169C00FB7A0079272211
:03002300021504BF
:10150400C0E0C0D075D000C000309847C298E52331
:101514007021E525601D75250074272525F8E664EE
:101524000A600DE525C3943250067600052580E94E
:1015340075250074272525F8A69975230174272598
:1015440025F8E6640A6005E525B4310575260180B1
:0A155400020525D000D0D0D0E0320F
:0C1899007FFD7E001218707F030216D540
:0618B000E4FF0FBF0AFC7B
:0118B600220F
:0618B700E4FF0FBF02FC7C
:0118BD002208
:10149B00E4FDFCFBFAC2A41218B7D2A41218B0C216
:1014AB00A430A5FDD28C30A51A0DBD00010CD3EDD7
:1014BB009430EC947540EFC28CE4F58CF58A7E0584
:1014CB007FDC22C28CAF8CEFFEAD8A7C00E42DFB5F
:1014DB00EC3E7D3AAF03FE120D57AA06AB07E4F5BF
:1014EB008CF58AAD07AC0612090B7B337A3379B3D3
:0814FB00783F120800120944B9
:0115030022C5
:1015F5000041542B4349504D55583D300041542B23
:1016050043495053544152543D22544350222C22B5
:1016150031302E37382E3130362E313436222C35B6
:101625003030300041542B4349504D4F44453D31F6
:0116350000B4
:0515EF00030BFF15F5E0
:1016A2007FFD7E001218707BFF7A1579F612183CC6
:1016B2007F647E0012172F7BFF7A16790212183C84
:1016C2007F887E1312172F7BFF7A16792912183C16
:0316D20002188774
:10131700750BFF750C15750DF512166C8B0B8A0C7A
:10132700890D74FF9015F56B7008E965827003EA03
:10133700658360DCAB0BAA0CA90D120CFFFFB4236D
:10134700CF60CD900001120D18120DCA139B6113C7
:101357007762138665137266138B69137C6C13812E
:10136700721390731395750000131712174D80A011
:1013770012176B809B1217A780961217C5809112C0
:1013870017E3808C12180180871217898082121840
:0C139700870213177F011216D5021317EE
:10080000EC4D6011E8497017ED33EC3304600DE4F2
:10081000FCFFFEFD22E933E8330470F80209B01250
:10082000097B58046009E4CC248150062850090251
:1008300009BA2840030209B7C0E0EB4A7044B98006
:1008400006D0E0FB0209A6EF4E701CBD8008EBFF4E
:10085000EAFEE9FD80EBE98DF0A4FEE5F00208E98F
:10086000E9CDF9EAFEEBFFEF89F0A4FCE5F0CE89D3
:10087000F0A42EFFE435F0CD89F0A42DFEE435F090
:100880008067EF4E7005BD80D780C3EF8BF0A4ACBE
:10089000F0EE8BF0A42CFCE435F0F8EF8AF0A42CF9
:1008A000E5F038FCE433CB8DF0A42CFCE5F03BF80C
:1008B000EE8AF0A42CFCE5F038F8E433CF89F0A4FC
:1008C0002CFCE5F038CF3400CE89F0A42FFFE5F002
:1008D0003EFEE433C98DF0A42EFEE5F039CD8AF05A
:1008E000A42FFFE5F03EFEE43DFD33D0E0FB5007D2
:1008F0000BBB000F0209BAEC2CFCEF33FFEE33FE0A
:06090000ED33FD02099237
:1009060075F020800E75F010800575F0087D007E6C
:10091600007F003392D530D503120DACEC33401076
:10092600EF33FFEE33FEED33FDEC33FCD5F0ED2275
:0E093600E5F0247EA2D513CC92E7CDCEFF22B1
:10094400EDD2E7CD33EC3392D524814006E4FFFEAB
:10095400FDFC22FCE4CFCECDCC24E0501174FF800A
:10096400EDC3CC13CCCD13CDCE13CECF13CF0470A7
:07097400F030D5DE020DACEE
:100DF000E573245FF8E6057322785C300702785FBC
:100E0000E475F001120DBA020CFF2000EB7F2ED228
:100E1000008018EF540F2490D43440D4FF30040BDA
:100E2000EF24BFB41A0050032461FFE5746002157B
:100E3000740577E5777002057630070D785CE47508
:100E4000F001120DBAEF020D450217007403D2072C
:100E50008003E4C207F5738B5C8A5D895EE4F574F8
:100E6000F576F577E57460077F20120E2B80F57517
:100E700075FFC201C200C202C203C205C206C20897
:100E8000120DF9FF700D3007057F00120E3CAF7791
:100E9000AE7622B4255FC2D5C204120DF9FF24D06C
:100EA000B40A00501A75F00A787430D50508B6FFF8
:100EB0000106C6A426F620D5047002D20380D924E8
:100EC000CFB41A00EF5004C2E5D204021129D201B6
:100ED00080C6D20080C0D20280BCD2D580BAD205F2
:100EE00080B47F20120E2B2002077401B5740040DD
:100EF000F1120DF0FF120E2B020E64D208D2068002
:100F000095120DF0FB120DF0FA120DF0F94A4B702C
:100F10000679207A127BFF20022EE574602A7E007B
:100F20008E82758300120D1860060EEE657570F0E6
:100F3000C2D5EBC0E0EAC0E0E9C0E0EE121189D012
:100F4000E0F9D0E0FAD0E0FB120CFFFF60AAEBC0A2
:100F5000E0EAC0E0E9C0E0120E2BD0E02401F9D0B5
:100F6000E03400FAD0E0FBE5750460DCD575D9808B
:100F700087D20280A212116C60F7E575700104122D
:100F800009C5A975600DE575600914F57512121390
:100F9000EF60F3EA30E702F404C3995077EAF425EE
:100FA000750430E701E404F575800D12116C60C121
:100FB000EA057525751209C5EA7872F630E701E48D
:100FC000257504D5750420050114121189E4C0E0CB
:100FD0001212137872E6601320E70714F6120E134C
:100FE000802204F6D0E014C0E07F00120E13E575F5
:100FF0006007120E0A1575800B300503120E0AD019
:10100000E0020E64D0E00480C512116C60A0E575AA
:10101000041209C57872EAF6E5752005026001043C
:051020002404121189F7
:1010250074FF04C0E0121213120E13E575200502B9
:101035006003120E0AD0E0B575E87F45120E1D78E3
:1010450072E67F2B30E7047F2DF404C0E0120E2BEF
:10105500D0E075F00A84C0F0120E14D0E0120E1420
:10106500020E64791080027908C206C2088008D28F
:10107500D5790A8004790AC2D5E575047002F5753B
:10108500E4FAFDFEFF120DF0FC7B08200113120DA2
:10109500F0FD7B1030000A120DF0FE120DF0FF7B03
:1010A50020EC3382D592D55013C3E43000069FFF60
:1010B500E49EFEE42001039DFDE49CFCE4CBF8C224
:1010C50001EC700CCFCECDCCE824F8F870F3801786
:1010D500C3EF33FFEE33FEED33FDEC33FCEB33FBB7
:1010E500994002FB0FD8E9EB300105F8D0E0C44880
:1010F500B201C0E00AEC4D4E4F78207B0070C2EA89
:10110500B5750040BCC0E012118BD0F0D0E02001D5
:1011150004C4C0E0C4B201C0F0120E14D0F0D5F082
:10112500EB020E64120DCA0F01531068580ED24C13
:101135000ECE42106C4F1074441074490EE74310E4
:101145007A550FAB461009450F75471240500ED61C
:101155002D0EDA2E0EFD2B0EDE230EFB2012292A74
:101165000E964800000EF5E575B4FF037575061279
:101175000DF0FC120DF0FD120DF0FE120DF0FF78D2
:101185006B0209F4790AA2D5200314300509B910B8
:10119500020404B9080104A2D52006025001042066
:1011A50002689202B574005034C0E07F2030031904
:1011B5007F30A20272067205500F1211E2C202C2FE
:1011C50006C205C2087F30800F300503E9C0E01272
:1011D5000E2B300503D0E0F9D0E0B574CC300517FF
:1011E5007F30B9100C120E2B7F583004077F7880A2
:1011F50003B90803120E2B3002057F2D020E2B7F3B
:10120500202008F87F2B2006F322920280CF7F0052
:10121500B407005005246BF8E6FF22286E756C6C48
:101225002900D201120DF03001F8C201787430D5D1
:101235000108F6020E962D50434958120DF024036D
:10124500B405004001E490123B93120E1C743A124F
:0A1255000E1CD20375740402106829
:10097B00E9D2E7C933E833F892D5EDD2E7CD33ECC2
:07098B0033FC5002B2D5223B
:10099200EC30E7100FBF000C0EBE00080DBD0004C6
:1009A2000BEB6014A2D5EB13FCED92E7FD2274FF72
:1009B200FCFDFEFF22E480F8A2D574FF13FC7D80CB
:0309C200E480EFDF
:1009C500F920E72824F950037907E4F42402FB18F9
:1009D500DBFDE624FB5014E9600DE4F618E604F6A9
:0F09E500B40A08E4F6D9F57401F60A22C2D52245
:1009F400ED33EC3392D5FA602AB4FF33EDC2E77BD2
:100A0400FF60067A0A7919E4227A0A792220D50449
:100A14007A0A791D224E614E002B494E46002D491B
:100A24004E4600E47A08F608DAFC7B00740722E8F4
:100A3400C0E0ECC0E0EDC0E0EEC0E0EFC0E0EA757D
:100A4400F010A4CAABF075F04DA42BFBE435F0FC18
:100A5400EA2410FAEB34C5FBEC34D9FCEDC2E7FF11
:100A640075F056A4F42411C5F0F434C58FF0A42A0B
:100A7400E5F03BE43CF620E714120CBFD0E0FFD0D5
:100A8400E0FED0E0FDD0E0FC120BF28014F404127E
:100A94000CBFD0E0FFD0E0FED0E0FDD0E0FC1208B7
:100AA40000D0E0F8E6FAEDD2E7CD33EC332482FB54
:100AB400E4C3CF33CFCE33CECD33CD33DBF37B079B
:100AC40075F00A846004F6081B0AE5F0F6088FF056
:100AD400740AA4FFACF08EF0740AA42CFEACF0509F
:100AE400010C8DF0740AA42CFDE435F0F608DBDE6D
:030AF40074072262
:100AF7000209B0E86480F8E933E83360110460F074
:100B0700ED33EC337009E8FCE9FDEAFEEBFF220464
:100B170060DED3EB9FEA9EE99DE8C2E78CF0C2F75F
:100B270095F0400CE8CCF8E9CDF9EACEFAEBCFFB2B
:100B370012097B85D0F05804700320D5B3E8047000
:100B4700075002B2D50209BA92D5EC0460F7E4CC9B
:100B5700C0E0C398F8603B94186008400DD0E0FBF4
:100B6700020992E4FBFAC9FC8028E830E406E4C9EC
:100B7700FBE4CAFCE830E305E4C9CACBFCE8540748
:100B87006010F8C3E913F9EA13FAEB13FBEC13FC53
:100B9700D8F130F52FC3E49CFCEF9BFFEE9AFEEDF6
:100BA70099FDD0E0FBEF4E4D4C701222DB0302099A
:100BB700B7EC2CFCEF33FFEE33FEED33FDED30E702
:100BC700EB020992EF2BFFEE3AFEED39FDD0E0FB89
:100BD70050130BBB00030209BAED13FDEE13FEEF32
:080BE70013FFEC13FC0209925C
:100BEF000209BAEC5D046005E8590470030209B00C
:100BFF0012097B580460F6EC4860F2EC7004FDFEBD
:100C0F00FF22C860DB2481C85009C39860025006D8
:100C1F000209B79850CAF582E9294B4A7005AB8291
:100C2F000209A675F0007C1A7880C3EF9BEE9AED4F
:100C3F0099400DC3EF9BFFEE9AFEED99FDE842F050
:100C4F00DC23ACF0D0E0FFD0E0FED0E0FDAB8220A3
:100C5F00E7101BEB60BAEC2CFCEF33FFEE33FEED2D
:100C6F0033FD020992E803F830E705C0F075F00094
:100C7F00EF2FFFEE33FEED33FD40B830E7C280AA11
:100C8F003F8000004120000042C80000447A00006D
:100C9F00461C400047C35000497424004B189680EF
:100CAF004CBEBC205A0E1BCA6753C21C749DC5AEE6
:100CBF00FB60065407601C2323120CEDEB543860C5
:100CCF0009120CD9120CE8120800ECF8EDF9EEFA43
:100CDF00EFCB22EB120CE880F1543803241C900C5C
:100CEF008FFE93FC0EEE93FD0EEE930ECE93FF222E
:030000000213A345
:0C13A300787FE4F6D8FD7581770213EA2C
:100CFF00BB010689828A83E0225002E722BBFE02F3
:090D0F00E32289828A83E4932225
:100D1800BB010CE58229F582E5833AF583E0225090
:100D280006E92582F8E622BBFE06E92582F8E222DA
:0D0D3800E58229F582E5833AF583E49322F4
:100D4500BB010689828A83F0225002F722BBFE018D
:020D5500F32287
:100D5700BC000BBE0029EF8DF084FFADF022E4CC80
:100D6700F875F008EF2FFFEE33FEEC33FCEE9DEC49
:100D7700984005FCEE9DFE0FD5F0E9E4CEFD22ED8F
:100D8700F8F5F0EE8420D21CFEADF075F008EF2FD9
:100D9700FFED33FD4007985006D5F0F222C398FDCA
:050DA7000FD5F0EA2267
:0E0DAC00C3E49FFFE49EFEE49DFDE49CFC2258
:100DBA00FAE6FB0808E6F925F0F618E6CA3AF6223A
:100DCA00D083D082F8E4937012740193700DA3A3B8
:100DDA0093F8740193F5828883E4737402936860CC
:060DEA00EFA3A3A380DFCC
:10170000EFB40A07740D12170B740A309811A899D8
:10171000B8130CC2983098FDA899C298B811F63049
:0717200099FDC299F5992221
:1013AF00021899E493A3F8E493A34003F68001F2A3
:1013BF0008DFF48029E493A3F85407240CC8C3333F
:1013CF00C4540F4420C8834004F456800146F6DF0E
:1013DF00E4800B01020408102040809015ACE47EDD
:1013EF00019360BCA3FF543F30E509541FFEE49303
:1013FF00A360010ECF54C025E060A840B8E493A3CA
:10140F00FAE493A3F8E493A3C8C582C8CAC583CAF4
:10141F00F0A3C8C582C8CAC583CADFE9DEE780BEAC
:0115F40000F6
:00000001FF
